:1C00D100AE82AF838E048F051EBEFF011FEC4D600A7DEF7C02DDFEDCFC80E922C5
:2000ED007FEF7E02DFFEDEFC22AF82C2A0C2A18F80D2A21200EDC2A20200EDAF82D2A0C2FC
:20010D00A18F80D2A21200EDC2A20200EDAF82BF010AE521144480F5820200F6BF020CAF98
:20012D0021743F2F4480F5820200F6227582381200F675820C1200F67582061200F675821C
:20014D00010200F685222112011A85238202010885242112011A7F00EF2525FCE43526FD88
:20016D00AE278C828D838EF01214B2FE600C8E82C007120108D0070F80DE2275250A752628
:20018D001575278075240175820112015D75250A75261575278075240175820202015DAE0E
:2001AD0082AF837C017D007B008B017A00C3E99528EA64808529F063F08095F0501E8E0ECC
:2001CD008F0F8C828D83C007C006C003121448AC82AD83D003D006D0070B80CD8C828D8344
:2001ED0022852A2112011AAF2DEF603F8F057E00ED24FFF528EE34FFF52990000AC0071278
:20020D0001ACAD82AE838D0E8E0F852B82852C8312141F750E0A750F00121465AD82743072
:20022D002DF582120108D0071F80BE22852E2112011AE53020E70C75822D120108AE2FAFA8
:20024D0030800F75822D120108C3E4952FFEE49530FFAD31ED60518D037C00EB24FFF528CF
:20026D00EC34FFF52990000AC007C006C0051201ACAB82AC83D005D006D0078B0E8C0F8EE9
:20028D00828F83C007C006C00512141F750E0A750F00121465AB8274302BF582120108D02C
:2002AD0005D006D0071D80AC2285322112011AAF35EF60558F057E00ED24FFF528EE34FF27
:2002CD00F529900010C0071201ACAD82AE838D0E8E0F85338285348312141FE5828583F01B
:2002ED00D007540FFDBD0A0050108D0674302EF582C007120108D007800C74372DF582C063
:20030D0007120108D0071F80A82285362112011AAF39EF603A8F057E00ED24FFF528EE3493
:20032D00FFF529900002C0071201ACAD82AE838D0E8E0F85378285388312141FE5828583B1
:10034D00F054012430F582120108D0071F80C3221A
:11150A002020202020202020202020202020202000D0
:20035D007F002090119000141200D13090FD9000141200D17F012091119000141200D1307C
:20037D0091FD9000141200D17F022092119000141200D13092FD9000141200D17F03209305
:20039D00119000141200D13093FD9000141200D17F042094119000141200D13094FD900041
:2003BD00141200D17F052095119000141200D13095FD9000141200D17F062096119000141F
:1103DD001200D13096FD9000141200D17F078F822229
:2003EE0053877F75984053890F438920758BFD758DFDD28EC2AB22AE82AF83E50A450B7076
:20040E0027E50C450D7021C3E5089408E5099400401674169508E49509400DEE4F7009857E
:20042E000882850983020466E50A450B7029E50C450D7023C3E5089408E50994004018745F
:20044E00169508E49509400FBE010CBF000985088285098302053322AE82AF8375825BC087
:20046E0007C0061206747582CF1206747582D61206747582D41206747582DA1206747582BF
:20048E00CA1206747582C71206747582B11206747582B11206747582BE1206747582A91253
:2004AE0006747582CA1206747582B11206747582BC1206747582E4120674D006D007C3EE2F
:2004CE00940AEF94004038750E0A750F008E828F83C007C00612141FAC8274302CF58212E9
:2004EE000674D006D007750E0A750F008E828F83121465AC8274302CF5821206748008740C
:20050E00302EF5821206747582B51206747582E31206747582D51206747582FB1206747583
:20052E00825D020674AE82AF8375825BC007C0061206747582CF1206747582D61206747565
:20054E0082D41206747582DA1206747582CA1206747582C71206747582B11206747582B1DB
:20056E001206747582BE1206747582A91206747582CA1206747582B11206747582BC120628
:20058E00747582E4120674D006D007EE4F6006BE0C09BF00067C0C7D008019750E0C750FD9
:2005AE00008E828F83C007C006121465AC82AD83D006D007C3EE940CEF940050227582C9E2
:2005CE00C005C0041206747582CF1206747582CE1206747582E7120674D004D0058020752D
:2005EE0082CFC005C0041206747582C21206747582CE1206747582E7120674D004D005C31B
:20060E00EC940AED94004038750E0A750F008C828D83C005C00412141FAE8274302EF582D3
:20062E00120674D004D005750E0A750F008C828D83121465AE8274302EF582120674800830
:20064E0074302CF5821206747582B51206747582E31206747582D51206747582FB12067445
:15066E0075825D02067485829910990280FB22109802C2993288
:0400000002001132B7
:03000B000213E2FB
:20006A00756600E4F53AF53BF53CF53DF53EF53FF54075413BF542754307F544F545754644
:20008A001EF547754805F549754AEA754B07F54C754D0CF54E754F01F550755103F552F52B
:2000AA0053F55475553BF55675570CF55875591EF55A755B05F55C755DEA755E07755F0159
:0700CA00F560F56102000E74
:03000E0002068364
:200683009000001214111201391213CD1203EE12035DAF828F3A753B001206CB853A82858A
:2006A3003B83120FC9E4B56102800E7401B56102800C7402B561D8800A120B9180D11207E6
:2006C3003D80CC12098C80C7E54C601DE54DB5431EE54EB54419E54FB54114E550B5420FEC
:2006E30075520190000102141190000002141122853F538540548541558542568543578592
:20070300445885465985475A85485B85495C854A5D854B5E2285533F8554408555418556FC
:2007230042855743855844855946855A47855B48855C49855D4A855E4B2275251B752615B7
:2007430075278075240175820212015DE5457006AE57AF588067E5574558600D740CB55712
:2007630006E4B55802800280207E0C7F00752521752615752780752407758202C007C006A5
:2007830012015DD006D0078034C3740C9557E495585026E55724F4FEE55834FFFF75252490
:2007A300752615752780752407758202C007C00612015DD006D0078004AE57AF58C374065A
:2007C300955FE495605003020891E55F75F003A49007D7730208910207EC02080902082558
:2007E30002083F02085B02087775670F855368855469756A02758202C007C006120E88D07B
:2008030006D00702089175670C855568855669756A02758202C007C006120E88D006D00733
:20082300806C7567098E688F69756A02758202C007C006120E88D006D007805275670985FE
:200843005968855A69756A02758201C007C006120E88D006D0078036756706855B68855C10
:2008630069756A02758201C007C006120E88D006D007801A756701855D68855E69756A0461
:20088300758201C007C006120E88D006D0077401B55F0614B56002801A752A0F85532B85F1
:2008A300542C752D02758202C007C0061201EED006D0077402B55F06E4B56002801A752A19
:2008C3000C85552B85562C752D02758202C007C0061201EED006D0077403B55F06E4B5609B
:2008E300028010752A098E2B8F2C752D027582021201EE7404B55F06E4B560028012752AEB
:200903000985592B855A2C752D027582011201EE7405B55F06E4B560028012752A06855B75
:200923002B855C2C752D027582011201EE7406B55F06E4B560028012752A01855D2B855E2E
:200943002C752D047582011201EE855B64855965855D82855E83120DD175220E75233A759C
:20096300820212015175220B75233A75820212015175220875232D7582011201517522055F
:2009830075232D758201020151E5457006AE4DAF4E8067E54D454E600D740CB54D06E4B571
:2009A3004E02800280207E0C7F0075252175261575278075240F758201C007C00612015D95
:2009C300D006D0078034C3740C954DE4954E5026E54D24F4FEE54E34FFFF75252475261536
:2009E30075278075240F758201C007C00612015DD006D0078004AE4DAF4E752527752615A1
:200A0300752780752405758201C007C00612015D75220675233A758202120151D006D007AB
:200A23007403B5514A7567048E688F69756A02758202120E88752A07854F2B85502C752D54
:200A4300027582021201EEE54C601275253075261575278075240B75820202015D75253493
:200A630075261575278075240B75820202015D7402B55152756707854F68855069756A029E
:200A8300758202C007C006120E88D006D007752A048E2B8F2C752D027582021201EEE54C92
:200AA300601275253075261575278075240B75820202015D75253475261575278075240BF0
:200AC30075820202015D7401B55102800122752A07854F2B85502C752D02758202C007C0D0
:200AE300061201EED006D007752A048E2B8F2C752D02758202C007C0061201EED006D00750
:200B0300E54C603075253875261575278075240B75820212015D9001901200D17525307523
:200B2300261575278075240B75820212015D9001900200D1752A07854F2B85502C752D0210
:200B4300758202C007C0061201EED006D007752A048E2B8F2C752D027582021201EE75250F
:200B63003875261575278075240B75820212015D9001901200D1752534752615752780754E
:200B8300240B75820212015D9001900200D1120ED675253C7526157527807524017582029B
:200BA30012015DE5457006AE43AF448059E543454470057E0CFF804EC3740C9543E4954410
:200BC3005026E54324F4FEE54434FFFF752524752615752780752407758202C007C0061241
:200BE300015DD006D007801EAE43AF44752521752615752780752407758202C007C00612A6
:200C0300015DD006D007854864854665854A82854B83C007C006120DD1AC457D0085430806
:200C230085440985410A85420B853F0C85400D8C828D83120405752A0F853F2B85402C755F
:200C43002D027582021201EE75220E75233A758202120151752A0C85412B85422C752D0261
:200C63007582021201EE75220B75233A758202120151D006D007752A098E2B8F2C752D0239
:200C83007582021201EE752A0985462B85472C752D027582011201EE75220875232D7582C9
:200CA30001120151752A0685482B85492C752D027582011201EE75220575232D758201122D
:200CC3000151752A01854A2B854B2C752D047582010201EEAE82AF837401B56202800574B1
:200CE30002B5620CAD62740C2DF5621EBEFF011F750E64750F008E828F83C007C00612147E
:200D030065AC82AD83D006D007750E64750F008E828F83C005C00412141FAE82AF83D004CF
:200D2300D005AA637B00A8627900740128F50EE439F50F90001AC007C006C005C004C0038C
:200D4300C002121448750E0A750F001214CEA882A983D002D003D004D005D006D007E82AF8
:200D6300FAE93BFBEC2AFAED3BFBEDC313CC13CCC313CC13CCFDEC2AFAED3BFB8E04EFC3C1
:200D830013CC13CCC313CC13CCFDEC2AFAED3BFB8E0E8F0F900005C003C002121448AE82EF
:200DA300AF83D002D003EE2AF582EF3BF583750E07750F00121465E5828583F02406F5828F
:200DC300E435F0F583750E07750F00021465856462856563120CD7E582FF24F95003020E93
:200DE30076EF2F900DEA73800C801C802C803C804C805C806C7525417526157527807524FE
:200E03000D75820102015D75254575261575278075240D75820102015D75254975261575B9
:200E2300278075240D75820102015D75254D75261575278075240D75820102015D7525516E
:200E430075261575278075240D75820102015D75255575261575278075240D758201020169
:200E63005D75255975261575278075240D75820102015D75255D75261575278075240D7577
:200E8300820102015DAF82E53D5403600122E566B401009200E433F566601185672A8568C7
:200EA3002B85692C856A2D8F820201EE756B20756C20756D20756E20756F00E56A246BF80C
:200EC300760075256B7526007527408567248F8202015DC3E53F943CE5409400400CE4F507
:200EE3003FF5400541B541020542C3E541943CE5429400400CE4F541F5420543B54302059E
:200F030044C3E5439418E5449400400CE4F543F5440546B546020547854870854A82854BA3
:200F230083120F5BAF827E00C3EF9546EE954750267546017547000548E4B548020549C37A
:200F4300740C9548E49549500E754801754900054AE4B54A02054B22AE82AF837402B570F2
:200F630043EE54036002801E750E64750F008E828F83C007C006121465E5828583F0D0060C
:200F8300D00745F07016750E90750F018E828F83121465E5828583F045F0700475821D2239
:200FA30075821C227404B5700280137406B57002800C7409B570028005740BB570047582D2
:200FC3001E2275821F22AE82E583FF30E7030213C7C374079E74808FF063F08095F050030F
:200FE3000213C7EE240A83F582EE240C83F583E473C7042050616596E2131010101013139A
:2010030011E561700C1201881206F37561010213C71201881207187561000213C7E552707C
:2010230016E56170091201887561020213C71201887561000213C77401B552028003021326
:20104300C77552009000001214110213C7E545B401009201E433F5451201880213C77401AD
:20106300B561028003021175C37406955FE4956050030213C7E55F75F003A490108273022A
:2010830013C70210970210B40210D10210EE02111B0211560553E4B553020554C3743B95E4
:2010A30053E4955440030213C7E4F553F5540213C70555E4B555020556C3743B9555E49523
:2010C3005640030213C7E4F555F5560213C70557E4B557020558C374179557E4955840034A
:2010E3000213C7E4F557F5580213C70559E4B55902055A855B70855D82855E83120F5BAFC2
:20110300827E00C3EF9559EE955A40030213C7755901755A000213C7055BE4B55B02055CFF
:20112300C3740C955BE4955C5006755B01755C00855B70855D82855E83120F5BAE827F0067
:20114300C3EE9559EF955A40030213C78E598F5A0213C7055DE4B55D02055EC3740F955D4F
:201163007427955E40030213C7755D6C755E070213C77402B5610280030213C77401B55163
:2011830002804B7402B55102800A7403B5510280200213C7054FE4B54F020550C3743B95E2
:2011A3004FE4955040030213C7E4F54FF5500213C7054DE4B54D02054EC37417954DE49576
:2011C3004E40030213C7E4F54DF54E0213C77401B54C06754C000213C7754C010213C7742F
:2011E30001B5610280030212FFC37406955FE4956050030213C7E55F75F003A4901203739C
:201203000213C702121802123502125202126F02129D0212DEAE53AF54155374FFB5530205
:201223001554EE4F60030213C775533B7554000213C7AE55AF56155574FFB555021556EED4
:201243004F60030213C775553B7556000213C7AE57AF58155774FFB557021558EE4F60034B
:201263000213C77557177558000213C7AE59AF5A155974FFB55902155ABE0105BF0002808E
:20128300030213C7855B70855D82855E83120F5BAF828F59755A000213C77401B55B061473
:2012A300B55C0280028008755B0C755C008009155B74FFB55B02155C855B70855D82855EDB
:2012C30083120F5BAE827F00C3EE9559EF955A40030213C78E598F5A0213C7AE5DAF5E15E8
:2012E3005D74FFB55D02155EBE6C05BF070280030213C7755D0F755E270213C77402B561FB
:201303000280030213C77401B5510280457402B55102800A7403B55102801D0213C7E54FF3
:2013230045507008754F3BF5500213C7154F74FFB54F0215500213C7E54D454E7008754D60
:2013430017F54E0213C7154D74FFB54D02154E0213C77401B54C06754C000213C7754C0161
:2013630080627401B5611A055FE4B55F020560C37406955FE49560504B755F017560008051
:20138300437402B5613E0551E55124FC503675510180317401B5611C155F74FFB55F0215DA
:2013A30060C3E55F9401E56094005018755F0675600080107402B5610B155174FF25514088
:2013C30003755103E4F53AF53B225389F0438901758CFC758A18C28DD28CD2A9D2AF22C0A1
:2013E300E0C0D0758CFC758A18053DE4B53D02053EC3E53D94E8E53E9403400D053FE4B5C4
:1C1403003F020540E4F53DF53ED0D0D0E032AE82AF83EE4F6003D2A322C2A3225C
:20151B00416C74657200414D00504D00536574416C61726D004F4E20004F4646002020207C
:20153B00004D61696E0053756E004D6F6E0054756500576564005468750046726900536157
:06155B00740045727200ED
:20141F007A10E4FBFCE58225E0F582E58333F583EB33FBEC33FCEB950EF5F0EC950F4006D5
:09143F00FCABF0438201DADD226E
:06004000E478FFF6D8FD94
:20001E007900E94400601B7A00901561780175A000E493F2A308B8000205A0D9F4DAF27512
:02003E00A0FF21
:1D144800E582850EF0A4C582C0F0850FF0A4D0F025F0C583850EF0A42583F5832254
:20146500E50E450F60467A01E50E25E0F50EE50F334012F50FE582950EE583950F40030A24
:2014850080E6C3E50F13F50FE50E13F50EC3E582950EF5F0E583950F4005F58385F082C3D5
:0D14A500E50F13F50FE50E13F50EDAE12249
:200046007800E84400600A790175A000E4F309D8FC7800E84400600C7900900001E4F0A3B8
:04006600D8FCD9FAEF
:0D001100758170121506E582600302000E75
:1C14B20020F71430F6148883A88220F507E6A88375830022E280F7E49322E02249
:2014CE00C2D5E58330E70DD2D5E4C39582F582E49583F583E50F30E70DB2D5E4C3950EF5AD
:1814EE000EE4950FF50F12141F30D50BE4C39582F582E49583F583222C
:0415060075820022C8
:00000001FF
